{
  "contractName": "GabrielToken",
  "abi": [
    {
      "inputs": [
        {
          "internalType": "string",
          "name": "token_name",
          "type": "string"
        },
        {
          "internalType": "string",
          "name": "short_symbol",
          "type": "string"
        },
        {
          "internalType": "uint8",
          "name": "token_decimals",
          "type": "uint8"
        },
        {
          "internalType": "uint256",
          "name": "token_totalSupply",
          "type": "uint256"
        }
      ],
      "stateMutability": "nonpayable",
      "type": "constructor"
    },
    {
      "anonymous": false,
      "inputs": [
        {
          "indexed": true,
          "internalType": "address",
          "name": "owner",
          "type": "address"
        },
        {
          "indexed": true,
          "internalType": "address",
          "name": "spender",
          "type": "address"
        },
        {
          "indexed": false,
          "internalType": "uint256",
          "name": "value",
          "type": "uint256"
        }
      ],
      "name": "Approval",
      "type": "event"
    },
    {
      "anonymous": false,
      "inputs": [
        {
          "indexed": true,
          "internalType": "address",
          "name": "previousOwner",
          "type": "address"
        },
        {
          "indexed": true,
          "internalType": "address",
          "name": "newOwner",
          "type": "address"
        }
      ],
      "name": "OwnershipTransferred",
      "type": "event"
    },
    {
      "anonymous": false,
      "inputs": [
        {
          "indexed": true,
          "internalType": "address",
          "name": "user",
          "type": "address"
        },
        {
          "indexed": false,
          "internalType": "uint256",
          "name": "amount",
          "type": "uint256"
        },
        {
          "indexed": false,
          "internalType": "uint256",
          "name": "index",
          "type": "uint256"
        },
        {
          "indexed": false,
          "internalType": "uint256",
          "name": "timestamp",
          "type": "uint256"
        }
      ],
      "name": "Staked",
      "type": "event"
    },
    {
      "anonymous": false,
      "inputs": [
        {
          "indexed": true,
          "internalType": "address",
          "name": "from",
          "type": "address"
        },
        {
          "indexed": true,
          "internalType": "address",
          "name": "to",
          "type": "address"
        },
        {
          "indexed": false,
          "internalType": "uint256",
          "name": "value",
          "type": "uint256"
        }
      ],
      "name": "Transfer",
      "type": "event"
    },
    {
      "inputs": [
        {
          "internalType": "address",
          "name": "_staker",
          "type": "address"
        }
      ],
      "name": "hasStake",
      "outputs": [
        {
          "components": [
            {
              "internalType": "uint256",
              "name": "total_amount",
              "type": "uint256"
            },
            {
              "components": [
                {
                  "internalType": "address",
                  "name": "user",
                  "type": "address"
                },
                {
                  "internalType": "uint256",
                  "name": "amount",
                  "type": "uint256"
                },
                {
                  "internalType": "uint256",
                  "name": "since",
                  "type": "uint256"
                },
                {
                  "internalType": "uint256",
                  "name": "claimable",
                  "type": "uint256"
                }
              ],
              "internalType": "struct Stakeable.Stake[]",
              "name": "stakes",
              "type": "tuple[]"
            }
          ],
          "internalType": "struct Stakeable.StakingSummary",
          "name": "",
          "type": "tuple"
        }
      ],
      "stateMutability": "view",
      "type": "function",
      "constant": true
    },
    {
      "inputs": [],
      "name": "owner",
      "outputs": [
        {
          "internalType": "address",
          "name": "",
          "type": "address"
        }
      ],
      "stateMutability": "view",
      "type": "function",
      "constant": true
    },
    {
      "inputs": [],
      "name": "renounceOwnership",
      "outputs": [],
      "stateMutability": "nonpayable",
      "type": "function"
    },
    {
      "inputs": [
        {
          "internalType": "address",
          "name": "newOwner",
          "type": "address"
        }
      ],
      "name": "transferOwnership",
      "outputs": [],
      "stateMutability": "nonpayable",
      "type": "function"
    },
    {
      "inputs": [],
      "name": "decimals",
      "outputs": [
        {
          "internalType": "uint8",
          "name": "",
          "type": "uint8"
        }
      ],
      "stateMutability": "view",
      "type": "function",
      "constant": true
    },
    {
      "inputs": [],
      "name": "symbol",
      "outputs": [
        {
          "internalType": "string",
          "name": "",
          "type": "string"
        }
      ],
      "stateMutability": "view",
      "type": "function",
      "constant": true
    },
    {
      "inputs": [],
      "name": "name",
      "outputs": [
        {
          "internalType": "string",
          "name": "",
          "type": "string"
        }
      ],
      "stateMutability": "view",
      "type": "function",
      "constant": true
    },
    {
      "inputs": [],
      "name": "totalSupply",
      "outputs": [
        {
          "internalType": "uint256",
          "name": "",
          "type": "uint256"
        }
      ],
      "stateMutability": "view",
      "type": "function",
      "constant": true
    },
    {
      "inputs": [],
      "name": "getOwner",
      "outputs": [
        {
          "internalType": "address",
          "name": "",
          "type": "address"
        }
      ],
      "stateMutability": "view",
      "type": "function",
      "constant": true
    },
    {
      "inputs": [
        {
          "internalType": "address",
          "name": "account",
          "type": "address"
        }
      ],
      "name": "balanceOf",
      "outputs": [
        {
          "internalType": "uint256",
          "name": "",
          "type": "uint256"
        }
      ],
      "stateMutability": "view",
      "type": "function",
      "constant": true
    },
    {
      "inputs": [
        {
          "internalType": "address",
          "name": "owner",
          "type": "address"
        },
        {
          "internalType": "address",
          "name": "spender",
          "type": "address"
        }
      ],
      "name": "allowance",
      "outputs": [
        {
          "internalType": "uint256",
          "name": "",
          "type": "uint256"
        }
      ],
      "stateMutability": "view",
      "type": "function",
      "constant": true
    },
    {
      "inputs": [
        {
          "internalType": "address",
          "name": "spender",
          "type": "address"
        },
        {
          "internalType": "uint256",
          "name": "amount",
          "type": "uint256"
        }
      ],
      "name": "approve",
      "outputs": [
        {
          "internalType": "bool",
          "name": "",
          "type": "bool"
        }
      ],
      "stateMutability": "nonpayable",
      "type": "function"
    },
    {
      "inputs": [
        {
          "internalType": "address",
          "name": "spender",
          "type": "address"
        },
        {
          "internalType": "address",
          "name": "recipient",
          "type": "address"
        },
        {
          "internalType": "uint256",
          "name": "amount",
          "type": "uint256"
        }
      ],
      "name": "transferFrom",
      "outputs": [
        {
          "internalType": "bool",
          "name": "",
          "type": "bool"
        }
      ],
      "stateMutability": "nonpayable",
      "type": "function"
    },
    {
      "inputs": [
        {
          "internalType": "address",
          "name": "spender",
          "type": "address"
        },
        {
          "internalType": "uint256",
          "name": "amount",
          "type": "uint256"
        }
      ],
      "name": "decreaseAllowance",
      "outputs": [
        {
          "internalType": "bool",
          "name": "",
          "type": "bool"
        }
      ],
      "stateMutability": "nonpayable",
      "type": "function"
    },
    {
      "inputs": [
        {
          "internalType": "address",
          "name": "account",
          "type": "address"
        },
        {
          "internalType": "uint256",
          "name": "amount",
          "type": "uint256"
        }
      ],
      "name": "mint",
      "outputs": [
        {
          "internalType": "bool",
          "name": "",
          "type": "bool"
        }
      ],
      "stateMutability": "nonpayable",
      "type": "function"
    },
    {
      "inputs": [
        {
          "internalType": "address",
          "name": "account",
          "type": "address"
        },
        {
          "internalType": "uint256",
          "name": "amount",
          "type": "uint256"
        }
      ],
      "name": "burn",
      "outputs": [
        {
          "internalType": "bool",
          "name": "",
          "type": "bool"
        }
      ],
      "stateMutability": "nonpayable",
      "type": "function"
    },
    {
      "inputs": [
        {
          "internalType": "address",
          "name": "recipient",
          "type": "address"
        },
        {
          "internalType": "uint256",
          "name": "amount",
          "type": "uint256"
        }
      ],
      "name": "transfer",
      "outputs": [
        {
          "internalType": "bool",
          "name": "",
          "type": "bool"
        }
      ],
      "stateMutability": "nonpayable",
      "type": "function"
    },
    {
      "inputs": [
        {
          "internalType": "uint256",
          "name": "_amount",
          "type": "uint256"
        }
      ],
      "name": "stake",
      "outputs": [],
      "stateMutability": "nonpayable",
      "type": "function"
    },
    {
      "inputs": [
        {
          "internalType": "uint256",
          "name": "amount",
          "type": "uint256"
        },
        {
          "internalType": "uint256",
          "name": "stake_index",
          "type": "uint256"
        }
      ],
      "name": "withdrawStake",
      "outputs": [],
      "stateMutability": "nonpayable",
      "type": "function"
    }
  ],
  "bytecode": "0x60806040526103e86001553480156200001757600080fd5b50604051620032fa380380620032fa83398181016040528101906200003d9190620004ea565b336000806101000a81548173ffffffffffffffffffffffffffffffffffffffff021916908373ffffffffffffffffffffffffffffffffffffffff16021790555060008054906101000a900473ffffffffffffffffffffffffffffffffffffffff1673ffffffffffffffffffffffffffffffffffffffff16600073ffffffffffffffffffffffffffffffffffffffff167f8be0079c531659141344cd1fd0a4f28419497f9722a3daafe3b4186f6b6457e060405160405180910390a360026001816001815401808255809150500390600052602060002090505083600790805190602001906200012e92919062000224565b5082600690805190602001906200014792919062000224565b5081600560006101000a81548160ff021916908360ff16021790555080600481905550600454600860003373ffffffffffffffffffffffffffffffffffffffff1673ffffffffffffffffffffffffffffffffffffffff168152602001908152602001600020819055503373ffffffffffffffffffffffffffffffffffffffff16600073ffffffffffffffffffffffffffffffffffffffff167fddf252ad1be2c89b69c2b068fc378daa952ba7f163c4a11628f55a4df523b3ef600454604051620002129190620005ab565b60405180910390a3505050506200062d565b8280546200023290620005f7565b90600052602060002090601f016020900481019282620002565760008555620002a2565b82601f106200027157805160ff1916838001178555620002a2565b82800160010185558215620002a2579182015b82811115620002a157825182559160200191906001019062000284565b5b509050620002b19190620002b5565b5090565b5b80821115620002d0576000816000905550600101620002b6565b5090565b6000604051905090565b600080fd5b600080fd5b600080fd5b600080fd5b6000601f19601f8301169050919050565b7f4e487b7100000000000000000000000000000000000000000000000000000000600052604160045260246000fd5b6200033d82620002f2565b810181811067ffffffffffffffff821117156200035f576200035e62000303565b5b80604052505050565b600062000374620002d4565b905062000382828262000332565b919050565b600067ffffffffffffffff821115620003a557620003a462000303565b5b620003b082620002f2565b9050602081019050919050565b60005b83811015620003dd578082015181840152602081019050620003c0565b83811115620003ed576000848401525b50505050565b60006200040a620004048462000387565b62000368565b905082815260208101848484011115620004295762000428620002ed565b5b62000436848285620003bd565b509392505050565b600082601f830112620004565762000455620002e8565b5b815162000468848260208601620003f3565b91505092915050565b600060ff82169050919050565b620004898162000471565b81146200049557600080fd5b50565b600081519050620004a9816200047e565b92915050565b6000819050919050565b620004c481620004af565b8114620004d057600080fd5b50565b600081519050620004e481620004b9565b92915050565b60008060008060808587031215620005075762000506620002de565b5b600085015167ffffffffffffffff811115620005285762000527620002e3565b5b62000536878288016200043e565b945050602085015167ffffffffffffffff8111156200055a5762000559620002e3565b5b62000568878288016200043e565b93505060406200057b8782880162000498565b92505060606200058e87828801620004d3565b91505092959194509250565b620005a581620004af565b82525050565b6000602082019050620005c260008301846200059a565b92915050565b7f4e487b7100000000000000000000000000000000000000000000000000000000600052602260045260246000fd5b600060028204905060018216806200061057607f821691505b60208210811415620006275762000626620005c8565b5b50919050565b612cbd806200063d6000396000f3fe608060405234801561001057600080fd5b50600436106101215760003560e01c80638da5cb5b116100ad578063a9059cbb11610071578063a9059cbb14610320578063dd62ed3e14610350578063e73e14bf14610380578063f1fdf469146103b0578063f2fde38b146103cc57610121565b80638da5cb5b1461026857806395d89b41146102865780639dc29fac146102a4578063a457c2d7146102d4578063a694fc3a1461030457610121565b8063313ce567116100f4578063313ce567146101c257806340c10f19146101e057806370a0823114610210578063715018a614610240578063893d20e81461024a57610121565b806306fdde0314610126578063095ea7b31461014457806318160ddd1461017457806323b872dd14610192575b600080fd5b61012e6103e8565b60405161013b9190611dea565b60405180910390f35b61015e60048036038101906101599190611ea5565b61047a565b60405161016b9190611f00565b60405180910390f35b61017c610491565b6040516101899190611f2a565b60405180910390f35b6101ac60048036038101906101a79190611f45565b61049b565b6040516101b99190611f00565b60405180910390f35b6101ca610604565b6040516101d79190611fb4565b60405180910390f35b6101fa60048036038101906101f59190611ea5565b61061b565b6040516102079190611f00565b60405180910390f35b61022a60048036038101906102259190611fcf565b6106bf565b6040516102379190611f2a565b60405180910390f35b610248610708565b005b610252610854565b60405161025f919061200b565b60405180910390f35b610270610863565b60405161027d919061200b565b60405180910390f35b61028e61088c565b60405161029b9190611dea565b60405180910390f35b6102be60048036038101906102b99190611ea5565b61091e565b6040516102cb9190611f00565b60405180910390f35b6102ee60048036038101906102e99190611ea5565b6109c2565b6040516102fb9190611f00565b60405180910390f35b61031e60048036038101906103199190612026565b610a60565b005b61033a60048036038101906103359190611ea5565b610af8565b6040516103479190611f00565b60405180910390f35b61036a60048036038101906103659190612053565b610b0f565b6040516103779190611f2a565b60405180910390f35b61039a60048036038101906103959190611fcf565b610b96565b6040516103a791906121f2565b60405180910390f35b6103ca60048036038101906103c59190612214565b610da2565b005b6103e660048036038101906103e19190611fcf565b610dbf565b005b6060600780546103f790612283565b80601f016020809104026020016040519081016040528092919081815260200182805461042390612283565b80156104705780601f1061044557610100808354040283529160200191610470565b820191906000526020600020905b81548152906001019060200180831161045357829003601f168201915b5050505050905090565b6000610487338484610e59565b6001905092915050565b6000600454905090565b600081600960008673ffffffffffffffffffffffffffffffffffffffff1673ffffffffffffffffffffffffffffffffffffffff16815260200190815260200160002060003373ffffffffffffffffffffffffffffffffffffffff1673ffffffffffffffffffffffffffffffffffffffff16815260200190815260200160002054101561055c576040517f08c379a000000000000000000000000000000000000000000000000000000000815260040161055390612327565b60405180910390fd5b610567848484611024565b6105f9843384600960008973ffffffffffffffffffffffffffffffffffffffff1673ffffffffffffffffffffffffffffffffffffffff16815260200190815260200160002060003373ffffffffffffffffffffffffffffffffffffffff1673ffffffffffffffffffffffffffffffffffffffff168152602001908152602001600020546105f49190612376565b610e59565b600190509392505050565b6000600560009054906101000a900460ff16905090565b60003373ffffffffffffffffffffffffffffffffffffffff1660008054906101000a900473ffffffffffffffffffffffffffffffffffffffff1673ffffffffffffffffffffffffffffffffffffffff16146106ab576040517f08c379a00000000000000000000000000000000000000000000000000000000081526004016106a29061241c565b60405180910390fd5b6106b5838361129c565b6001905092915050565b6000600860008373ffffffffffffffffffffffffffffffffffffffff1673ffffffffffffffffffffffffffffffffffffffff168152602001908152602001600020549050919050565b3373ffffffffffffffffffffffffffffffffffffffff1660008054906101000a900473ffffffffffffffffffffffffffffffffffffffff1673ffffffffffffffffffffffffffffffffffffffff1614610796576040517f08c379a000000000000000000000000000000000000000000000000000000000815260040161078d9061241c565b60405180910390fd5b60008060006101000a81548173ffffffffffffffffffffffffffffffffffffffff021916908373ffffffffffffffffffffffffffffffffffffffff160217905550600073ffffffffffffffffffffffffffffffffffffffff1660008054906101000a900473ffffffffffffffffffffffffffffffffffffffff1673ffffffffffffffffffffffffffffffffffffffff167f8be0079c531659141344cd1fd0a4f28419497f9722a3daafe3b4186f6b6457e060405160405180910390a3565b600061085e610863565b905090565b60008060009054906101000a900473ffffffffffffffffffffffffffffffffffffffff16905090565b60606006805461089b90612283565b80601f01602080910402602001604051908101604052809291908181526020018280546108c790612283565b80156109145780601f106108e957610100808354040283529160200191610914565b820191906000526020600020905b8154815290600101906020018083116108f757829003601f168201915b5050505050905090565b60003373ffffffffffffffffffffffffffffffffffffffff1660008054906101000a900473ffffffffffffffffffffffffffffffffffffffff1673ffffffffffffffffffffffffffffffffffffffff16146109ae576040517f08c379a00000000000000000000000000000000000000000000000000000000081526004016109a59061241c565b60405180910390fd5b6109b883836113e5565b6001905092915050565b6000610a56338484600960003373ffffffffffffffffffffffffffffffffffffffff1673ffffffffffffffffffffffffffffffffffffffff16815260200190815260200160002060008873ffffffffffffffffffffffffffffffffffffffff1673ffffffffffffffffffffffffffffffffffffffff16815260200190815260200160002054610a519190612376565b610e59565b6001905092915050565b600860003373ffffffffffffffffffffffffffffffffffffffff1673ffffffffffffffffffffffffffffffffffffffff16815260200190815260200160002054811115610ae2576040517f08c379a0000000000000000000000000000000000000000000000000000000008152600401610ad990612488565b60405180910390fd5b610aeb816115b0565b610af533826113e5565b50565b6000610b05338484611024565b6001905092915050565b6000600960008473ffffffffffffffffffffffffffffffffffffffff1673ffffffffffffffffffffffffffffffffffffffff16815260200190815260200160002060008373ffffffffffffffffffffffffffffffffffffffff1673ffffffffffffffffffffffffffffffffffffffff16815260200190815260200160002054905092915050565b610b9e611d37565b6000806040518060400160405280600081526020016002600360008873ffffffffffffffffffffffffffffffffffffffff1673ffffffffffffffffffffffffffffffffffffffff1681526020019081526020016000205481548110610c0657610c056124a8565b5b9060005260206000209060020201600101805480602002602001604051908101604052809291908181526020016000905b82821015610cdd57838290600052602060002090600402016040518060800160405290816000820160009054906101000a900473ffffffffffffffffffffffffffffffffffffffff1673ffffffffffffffffffffffffffffffffffffffff1673ffffffffffffffffffffffffffffffffffffffff168152602001600182015481526020016002820154815260200160038201548152505081526020019060010190610c37565b50505050815250905060005b816020015151811015610d8d576000610d1f83602001518381518110610d1257610d116124a8565b5b6020026020010151611795565b90508083602001518381518110610d3957610d386124a8565b5b6020026020010151606001818152505082602001518281518110610d6057610d5f6124a8565b5b60200260200101516020015184610d7791906124d7565b9350508080610d859061252d565b915050610ce9565b50818160000181815250508092505050919050565b6000610dae83836117e8565b9050610dba338261129c565b505050565b3373ffffffffffffffffffffffffffffffffffffffff1660008054906101000a900473ffffffffffffffffffffffffffffffffffffffff1673ffffffffffffffffffffffffffffffffffffffff1614610e4d576040517f08c379a0000000000000000000000000000000000000000000000000000000008152600401610e449061241c565b60405180910390fd5b610e5681611b23565b50565b600073ffffffffffffffffffffffffffffffffffffffff168373ffffffffffffffffffffffffffffffffffffffff161415610ec9576040517f08c379a0000000000000000000000000000000000000000000000000000000008152600401610ec0906125e8565b60405180910390fd5b600073ffffffffffffffffffffffffffffffffffffffff168273ffffffffffffffffffffffffffffffffffffffff161415610f39576040517f08c379a0000000000000000000000000000000000000000000000000000000008152600401610f309061267a565b60405180910390fd5b80600960008573ffffffffffffffffffffffffffffffffffffffff1673ffffffffffffffffffffffffffffffffffffffff16815260200190815260200160002060008473ffffffffffffffffffffffffffffffffffffffff1673ffffffffffffffffffffffffffffffffffffffff168152602001908152602001600020819055508173ffffffffffffffffffffffffffffffffffffffff168373ffffffffffffffffffffffffffffffffffffffff167f8c5be1e5ebec7d5bd14f71427d1e84f3dd0314c0f7b2291e5b200ac8c7c3b925836040516110179190611f2a565b60405180910390a3505050565b600073ffffffffffffffffffffffffffffffffffffffff168373ffffffffffffffffffffffffffffffffffffffff161415611094576040517f08c379a000000000000000000000000000000000000000000000000000000000815260040161108b9061270c565b60405180910390fd5b600073ffffffffffffffffffffffffffffffffffffffff168273ffffffffffffffffffffffffffffffffffffffff161415611104576040517f08c379a00000000000000000000000000000000000000000000000000000000081526004016110fb9061279e565b60405180910390fd5b600860008473ffffffffffffffffffffffffffffffffffffffff1673ffffffffffffffffffffffffffffffffffffffff16815260200190815260200160002054811115611186576040517f08c379a000000000000000000000000000000000000000000000000000000000815260040161117d90612488565b60405180910390fd5b80600860008573ffffffffffffffffffffffffffffffffffffffff1673ffffffffffffffffffffffffffffffffffffffff16815260200190815260200160002060008282546111d59190612376565b9250508190555080600860008473ffffffffffffffffffffffffffffffffffffffff1673ffffffffffffffffffffffffffffffffffffffff168152602001908152602001600020600082825461122b91906124d7565b925050819055508173ffffffffffffffffffffffffffffffffffffffff168373ffffffffffffffffffffffffffffffffffffffff167fddf252ad1be2c89b69c2b068fc378daa952ba7f163c4a11628f55a4df523b3ef8360405161128f9190611f2a565b60405180910390a3505050565b600073ffffffffffffffffffffffffffffffffffffffff168273ffffffffffffffffffffffffffffffffffffffff16141561130c576040517f08c379a000000000000000000000000000000000000000000000000000000000815260040161130390612830565b60405180910390fd5b806004600082825461131e91906124d7565b9250508190555080600860008473ffffffffffffffffffffffffffffffffffffffff1673ffffffffffffffffffffffffffffffffffffffff168152602001908152602001600020600082825461137491906124d7565b925050819055508173ffffffffffffffffffffffffffffffffffffffff16600073ffffffffffffffffffffffffffffffffffffffff167fddf252ad1be2c89b69c2b068fc378daa952ba7f163c4a11628f55a4df523b3ef836040516113d99190611f2a565b60405180910390a35050565b600073ffffffffffffffffffffffffffffffffffffffff168273ffffffffffffffffffffffffffffffffffffffff161415611455576040517f08c379a000000000000000000000000000000000000000000000000000000000815260040161144c906128c2565b60405180910390fd5b600860008373ffffffffffffffffffffffffffffffffffffffff1673ffffffffffffffffffffffffffffffffffffffff168152602001908152602001600020548111156114d7576040517f08c379a00000000000000000000000000000000000000000000000000000000081526004016114ce90612954565b60405180910390fd5b80600460008282546114e99190612376565b9250508190555080600860008473ffffffffffffffffffffffffffffffffffffffff1673ffffffffffffffffffffffffffffffffffffffff168152602001908152602001600020600082825461153f9190612376565b92505081905550600073ffffffffffffffffffffffffffffffffffffffff168273ffffffffffffffffffffffffffffffffffffffff167fddf252ad1be2c89b69c2b068fc378daa952ba7f163c4a11628f55a4df523b3ef836040516115a49190611f2a565b60405180910390a35050565b600081116115f3576040517f08c379a00000000000000000000000000000000000000000000000000000000081526004016115ea906129c0565b60405180910390fd5b6000600360003373ffffffffffffffffffffffffffffffffffffffff1673ffffffffffffffffffffffffffffffffffffffff168152602001908152602001600020549050600042905060008214156116515761164e33611c50565b91505b60028281548110611665576116646124a8565b5b906000526020600020906002020160010160405180608001604052803373ffffffffffffffffffffffffffffffffffffffff1681526020018581526020018381526020016000815250908060018154018082558091505060019003906000526020600020906004020160009091909190915060008201518160000160006101000a81548173ffffffffffffffffffffffffffffffffffffffff021916908373ffffffffffffffffffffffffffffffffffffffff16021790555060208201518160010155604082015181600201556060820151816003015550503373ffffffffffffffffffffffffffffffffffffffff167fb4caaf29adda3eefee3ad552a8e85058589bf834c7466cae4ee58787f70589ed848484604051611788939291906129e0565b60405180910390a2505050565b6000808260400151426117a89190612376565b90506000610e10826117ba9190612a46565b905060006001548560200151836117d19190612a77565b6117db9190612a46565b9050809350505050919050565b600080600360003373ffffffffffffffffffffffffffffffffffffffff1673ffffffffffffffffffffffffffffffffffffffff168152602001908152602001600020549050600060028281548110611843576118426124a8565b5b90600052602060002090600202016001018481548110611866576118656124a8565b5b90600052602060002090600402016040518060800160405290816000820160009054906101000a900473ffffffffffffffffffffffffffffffffffffffff1673ffffffffffffffffffffffffffffffffffffffff1673ffffffffffffffffffffffffffffffffffffffff168152602001600182015481526020016002820154815260200160038201548152505090503373ffffffffffffffffffffffffffffffffffffffff16816000015173ffffffffffffffffffffffffffffffffffffffff1614611967576040517f08c379a000000000000000000000000000000000000000000000000000000000815260040161195e90612b43565b60405180910390fd5b84816020015110156119ae576040517f08c379a00000000000000000000000000000000000000000000000000000000081526004016119a590612bd5565b60405180910390fd5b60006119b982611795565b905085826020018181516119cd9190612376565b91508181525050600082602001511415611a6d57600283815481106119f5576119f46124a8565b5b90600052602060002090600202016001018581548110611a1857611a176124a8565b5b9060005260206000209060040201600080820160006101000a81549073ffffffffffffffffffffffffffffffffffffffff02191690556001820160009055600282016000905560038201600090555050611b0c565b816020015160028481548110611a8657611a856124a8565b5b90600052602060002090600202016001018681548110611aa957611aa86124a8565b5b9060005260206000209060040201600101819055504260028481548110611ad357611ad26124a8565b5b90600052602060002090600202016001018681548110611af657611af56124a8565b5b9060005260206000209060040201600201819055505b8086611b1891906124d7565b935050505092915050565b600073ffffffffffffffffffffffffffffffffffffffff168173ffffffffffffffffffffffffffffffffffffffff161415611b93576040517f08c379a0000000000000000000000000000000000000000000000000000000008152600401611b8a90612c67565b60405180910390fd5b8073ffffffffffffffffffffffffffffffffffffffff1660008054906101000a900473ffffffffffffffffffffffffffffffffffffffff1673ffffffffffffffffffffffffffffffffffffffff167f8be0079c531659141344cd1fd0a4f28419497f9722a3daafe3b4186f6b6457e060405160405180910390a3806000806101000a81548173ffffffffffffffffffffffffffffffffffffffff021916908373ffffffffffffffffffffffffffffffffffffffff16021790555050565b600060026001816001815401808255809150500390600052602060002090505060006001600280549050611c849190612376565b90508260028281548110611c9b57611c9a6124a8565b5b906000526020600020906002020160000160006101000a81548173ffffffffffffffffffffffffffffffffffffffff021916908373ffffffffffffffffffffffffffffffffffffffff16021790555080600360008573ffffffffffffffffffffffffffffffffffffffff1673ffffffffffffffffffffffffffffffffffffffff1681526020019081526020016000208190555080915050919050565b604051806040016040528060008152602001606081525090565b600081519050919050565b600082825260208201905092915050565b60005b83811015611d8b578082015181840152602081019050611d70565b83811115611d9a576000848401525b50505050565b6000601f19601f8301169050919050565b6000611dbc82611d51565b611dc68185611d5c565b9350611dd6818560208601611d6d565b611ddf81611da0565b840191505092915050565b60006020820190508181036000830152611e048184611db1565b905092915050565b600080fd5b600073ffffffffffffffffffffffffffffffffffffffff82169050919050565b6000611e3c82611e11565b9050919050565b611e4c81611e31565b8114611e5757600080fd5b50565b600081359050611e6981611e43565b92915050565b6000819050919050565b611e8281611e6f565b8114611e8d57600080fd5b50565b600081359050611e9f81611e79565b92915050565b60008060408385031215611ebc57611ebb611e0c565b5b6000611eca85828601611e5a565b9250506020611edb85828601611e90565b9150509250929050565b60008115159050919050565b611efa81611ee5565b82525050565b6000602082019050611f156000830184611ef1565b92915050565b611f2481611e6f565b82525050565b6000602082019050611f3f6000830184611f1b565b92915050565b600080600060608486031215611f5e57611f5d611e0c565b5b6000611f6c86828701611e5a565b9350506020611f7d86828701611e5a565b9250506040611f8e86828701611e90565b9150509250925092565b600060ff82169050919050565b611fae81611f98565b82525050565b6000602082019050611fc96000830184611fa5565b92915050565b600060208284031215611fe557611fe4611e0c565b5b6000611ff384828501611e5a565b91505092915050565b61200581611e31565b82525050565b60006020820190506120206000830184611ffc565b92915050565b60006020828403121561203c5761203b611e0c565b5b600061204a84828501611e90565b91505092915050565b6000806040838503121561206a57612069611e0c565b5b600061207885828601611e5a565b925050602061208985828601611e5a565b9150509250929050565b61209c81611e6f565b82525050565b600081519050919050565b600082825260208201905092915050565b6000819050602082019050919050565b6120d781611e31565b82525050565b6080820160008201516120f360008501826120ce565b5060208201516121066020850182612093565b5060408201516121196040850182612093565b50606082015161212c6060850182612093565b50505050565b600061213e83836120dd565b60808301905092915050565b6000602082019050919050565b6000612162826120a2565b61216c81856120ad565b9350612177836120be565b8060005b838110156121a857815161218f8882612132565b975061219a8361214a565b92505060018101905061217b565b5085935050505092915050565b60006040830160008301516121cd6000860182612093565b50602083015184820360208601526121e58282612157565b9150508091505092915050565b6000602082019050818103600083015261220c81846121b5565b905092915050565b6000806040838503121561222b5761222a611e0c565b5b600061223985828601611e90565b925050602061224a85828601611e90565b9150509250929050565b7f4e487b7100000000000000000000000000000000000000000000000000000000600052602260045260246000fd5b6000600282049050600182168061229b57607f821691505b602082108114156122af576122ae612254565b5b50919050565b7f4761627269656c546f6b656e3a206e6f7420656e6f75676820616c6c6f77616e60008201527f6365000000000000000000000000000000000000000000000000000000000000602082015250565b6000612311602283611d5c565b915061231c826122b5565b604082019050919050565b6000602082019050818103600083015261234081612304565b9050919050565b7f4e487b7100000000000000000000000000000000000000000000000000000000600052601160045260246000fd5b600061238182611e6f565b915061238c83611e6f565b92508282101561239f5761239e612347565b5b828203905092915050565b7f4f776e61626c653a204f6e6c79206f776e65722063616e2063616c6c2074686960008201527f732066756e6374696f6e2e000000000000000000000000000000000000000000602082015250565b6000612406602b83611d5c565b9150612411826123aa565b604082019050919050565b60006020820190508181036000830152612435816123f9565b9050919050565b7f4761627269656c546f6b656e3a20496e73756666696369656e742066756e6473600082015250565b6000612472602083611d5c565b915061247d8261243c565b602082019050919050565b600060208201905081810360008301526124a181612465565b9050919050565b7f4e487b7100000000000000000000000000000000000000000000000000000000600052603260045260246000fd5b60006124e282611e6f565b91506124ed83611e6f565b9250827fffffffffffffffffffffffffffffffffffffffffffffffffffffffffffffffff0382111561252257612521612347565b5b828201905092915050565b600061253882611e6f565b91507fffffffffffffffffffffffffffffffffffffffffffffffffffffffffffffffff82141561256b5761256a612347565b5b600182019050919050565b7f4761627269656c546f6b656e3a20617070726f76652063616e6e6f742062652060008201527f646f6e652066726f6d207a65726f206164647265737300000000000000000000602082015250565b60006125d2603683611d5c565b91506125dd82612576565b604082019050919050565b60006020820190508181036000830152612601816125c5565b9050919050565b7f4761627269656c546f6b656e3a20617070726f76652063616e6e6f742062652060008201527f646f6e6520746f207a65726f2061646472657373000000000000000000000000602082015250565b6000612664603483611d5c565b915061266f82612608565b604082019050919050565b6000602082019050818103600083015261269381612657565b9050919050565b7f4761627269656c546f6b656e3a2043616e6e6f74207472616e7366657220667260008201527f6f6d207a65726f20616464726573730000000000000000000000000000000000602082015250565b60006126f6602f83611d5c565b91506127018261269a565b604082019050919050565b60006020820190508181036000830152612725816126e9565b9050919050565b7f4761627269656c546f6b656e3a2043616e6e6f74207472616e7366657220746f60008201527f207a65726f206164647265737300000000000000000000000000000000000000602082015250565b6000612788602d83611d5c565b91506127938261272c565b604082019050919050565b600060208201905081810360008301526127b78161277b565b9050919050565b7f4761627269656c546f6b656e3a2043616e6e6f74206d696e7420746f207a657260008201527f6f20616464726573730000000000000000000000000000000000000000000000602082015250565b600061281a602983611d5c565b9150612825826127be565b604082019050919050565b600060208201905081810360008301526128498161280d565b9050919050565b7f4761627269656c546f6b656e3a2043616e6e6f74206275726e2066726f6d207a60008201527f65726f2061646472657373000000000000000000000000000000000000000000602082015250565b60006128ac602b83611d5c565b91506128b782612850565b604082019050919050565b600060208201905081810360008301526128db8161289f565b9050919050565b7f4761627269656c546f6b656e3a2043616e6e6f74206275726e206d6f7265207460008201527f68616e2062616c616e6365000000000000000000000000000000000000000000602082015250565b600061293e602b83611d5c565b9150612949826128e2565b604082019050919050565b6000602082019050818103600083015261296d81612931565b9050919050565b7f5374616b6561626c653a2043616e6e6f74207374616b65206e6f7468696e6700600082015250565b60006129aa601f83611d5c565b91506129b582612974565b602082019050919050565b600060208201905081810360008301526129d98161299d565b9050919050565b60006060820190506129f56000830186611f1b565b612a026020830185611f1b565b612a0f6040830184611f1b565b949350505050565b7f4e487b7100000000000000000000000000000000000000000000000000000000600052601260045260246000fd5b6000612a5182611e6f565b9150612a5c83611e6f565b925082612a6c57612a6b612a17565b5b828204905092915050565b6000612a8282611e6f565b9150612a8d83611e6f565b9250817fffffffffffffffffffffffffffffffffffffffffffffffffffffffffffffffff0483118215151615612ac657612ac5612347565b5b828202905092915050565b7f5374616b6561626c653a2043616e6e6f74207769746864726177207374616b6560008201527f2074686174206973206e6f7420796f7572730000000000000000000000000000602082015250565b6000612b2d603283611d5c565b9150612b3882612ad1565b604082019050919050565b60006020820190508181036000830152612b5c81612b20565b9050919050565b7f5374616b6561626c653a2043616e6e6f74207769746864726177206d6f72652060008201527f746f6b656e73207468616e20796f752068617665207374616b65640000000000602082015250565b6000612bbf603b83611d5c565b9150612bca82612b63565b604082019050919050565b60006020820190508181036000830152612bee81612bb2565b9050919050565b7f4f776e61626c653a206e6577206f776e657220697320746865207a65726f206160008201527f6464726573730000000000000000000000000000000000000000000000000000602082015250565b6000612c51602683611d5c565b9150612c5c82612bf5565b604082019050919050565b60006020820190508181036000830152612c8081612c44565b905091905056fea26469706673582212205ed47c3485e667bf4c988ff18ec16ce8365179b13c2c451b96a9ed51e026e25f64736f6c634300080a0033",
  "immutableReferences": {},
  "source": "// SPDX-License-Identifier: MIT\npragma solidity ^0.8.10;\n\nimport './Ownable.sol';\nimport './Stakeable.sol';\n\ncontract GabrielToken is Ownable, Stakeable {\n\n  uint private _totalSupply;\n  uint8 private _decimals;\n  string private _symbol;\n  string private _name;\n\n  mapping (address => uint256) private _balances;\n\n  mapping (address => mapping (address => uint256)) private _allowances;\n\n  event Transfer(address indexed from, address indexed to, uint256 value);\n  event Approval(address indexed owner, address indexed spender, uint256 value);\n\n  constructor(\n    string memory token_name,\n    string memory short_symbol,\n    uint8 token_decimals,\n    uint256 token_totalSupply\n  ) {\n    _name = token_name;\n    _symbol = short_symbol;\n    _decimals = token_decimals;\n    _totalSupply = token_totalSupply;\n    _balances[msg.sender] = _totalSupply;\n\n    emit Transfer(address(0), msg.sender, _totalSupply);\n  }\n\n  function decimals() external view returns (uint8) {\n    return _decimals;\n  }\n\n  function symbol() external view returns (string memory) {\n    return _symbol;\n  }\n\n  function name() external view returns (string memory) {\n    return _name;\n  }\n  \n  function totalSupply() external view returns (uint256) {\n    return _totalSupply;\n  }\n\n  function getOwner() external view returns (address) {\n    return owner();\n  }\n\n  function balanceOf(address account) external view returns (uint256) {\n    return _balances[account];\n  }\n\n  function allowance(address owner, address spender) external view returns (uint256) {\n    return _allowances[owner][spender];\n  }\n\n  function approve(address spender, uint256 amount) external returns (bool) {\n    _approve(msg.sender, spender, amount);\n    return true;\n  }\n\n  function _approve(address owner, address spender, uint256 amount) internal {\n    require(owner != address(0), 'GabrielToken: approve cannot be done from zero address');\n    require(spender != address(0), 'GabrielToken: approve cannot be done to zero address');\n\n    _allowances[owner][spender] = amount;\n\n    emit Approval(owner, spender, amount);\n  }\n\n  function transferFrom(address spender, address recipient, uint256 amount) external returns (bool) {\n    require(_allowances[spender][msg.sender] >= amount, 'GabrielToken: not enough allowance');\n\n    _transfer(spender, recipient, amount);\n    _approve(spender, msg.sender, _allowances[spender][msg.sender] - amount);\n\n    return true;\n  }\n\n  function decreaseAllowance(address spender, uint256 amount) external returns (bool) {\n    _approve(msg.sender, spender, _allowances[msg.sender][spender] - amount);\n    return true;\n  }\n\n  function mint(address account, uint256 amount) external onlyOwner returns (bool) {\n    _mint(account, amount);\n    return true;\n  }\n\n  function _mint(address account, uint256 amount) internal {\n    require(account != address(0), 'GabrielToken: Cannot mint to zero address');\n\n    _totalSupply += amount;\n    _balances[account] += amount;\n\n    emit Transfer(address(0), account, amount);\n  }\n\n  function burn(address account, uint256 amount) external onlyOwner returns(bool) {\n    _burn(account, amount);\n    return true;\n  }\n\n  function _burn(address account, uint256 amount) internal {\n    require(account != address(0), 'GabrielToken: Cannot burn from zero address');\n    require(amount <= _balances[account], 'GabrielToken: Cannot burn more than balance');\n\n    _totalSupply -= amount;\n    _balances[account] -= amount;\n\n    emit Transfer(account, address(0), amount);\n  }\n\n  function transfer(address recipient, uint256 amount) external returns (bool) {\n    _transfer(msg.sender, recipient, amount);\n    return true;\n  }\n\n  function _transfer(address sender, address recipient, uint256 amount) internal {\n    require(sender != address(0), 'GabrielToken: Cannot transfer from zero address');\n    require(recipient != address(0), 'GabrielToken: Cannot transfer to zero address');\n    require(amount <= _balances[sender], 'GabrielToken: Insufficient funds');\n\n    _balances[sender] -= amount;\n    _balances[recipient] += amount;\n\n    emit Transfer(sender, recipient, amount);\n  }\n\n  function stake(uint256 _amount) external {\n    require(_amount <= _balances[msg.sender], 'GabrielToken: Insufficient funds');\n\n    _stake(_amount);\n    _burn(msg.sender, _amount);\n  }\n\n  function withdrawStake(uint256 amount, uint256 stake_index) external {\n    uint256 amount_to_mint = _withdrawStake(amount, stake_index);\n\n    _mint(msg.sender, amount_to_mint);\n  }\n\n}",
  "sourcePath": "/home/gabriel/Documents/Code/personal/solidity/bnb/stakeableDapp/smartContracts/contracts/GabrielToken.sol",
  "compiler": {
    "name": "solc",
    "version": "0.8.10+commit.fc410830.Emscripten.clang"
  },
  "schemaVersion": "3.4.3",
  "updatedAt": "2021-11-26T05:46:43.526Z",
  "networkType": "ethereum",
  "devdoc": {
    "kind": "dev",
    "methods": {},
    "version": 1
  },
  "userdoc": {
    "events": {
      "Staked(address,uint256,uint256,uint256)": {
        "notice": "Staked event is triggered whenever a user stakes tokens, address is indexed to make it filterable"
      }
    },
    "kind": "user",
    "methods": {},
    "version": 1
  }
}